:020000040800F2
:1000000058CB002055020008173B000801360008B5
:10001000153B0008B9170008515500080000000002
:1000200000000000000000000000000091500008E7
:100030004318000800000000134F00089350000808
:100040006F0200086F0200086F0200086F020008CC
:100050006F0200086F0200086F0200086F020008BC
:100060006F0200086F0200086F0200086F020008AC
:100070006F0200086F0200086F020008BD17000839
:10008000C91700086F020008AD1700086F020008CA
:100090006F0200086F0200086F0200086F0200087C
:1000A0006F0200086F0200086F0200086F0200086C
:1000B000515100086F0200085D5100086F020008EE
:1000C0006F0200086F0200086F0200086F0200084C
:1000D0006F0200086F0200086F0200086F0200083C
:1000E0006F0200086F0200086F0200086F0200082C
:1000F0006F0200086F0200086F0200086F0200081C
:100100006F0200086F0200086F0200086F0200080B
:100110006F0200086F020008695100086F020008B2
:10012000D51700086F0200086F020008E1170008E9
:100130006F0200086F0200086F0200086F020008DB
:100140006F0200086F0200086F0200086F020008CB
:100150006F0200086F0200086F0200086F020008BB
:100160006F0200086F0200086F0200086F020008AB
:100170006F0200086F0200086F0200080000000014
:100180006F0200086F02000800F002F800F052F859
:100190000AA090E8000C82448344AAF10107DA45E2
:1001A00001D100F047F8AFF2090EBAE80F0013F0E2
:1001B000010F18BFFB1A43F001031847D83B050095
:1001C000F83B0500103A24BF78C878C1FAD8520726
:1001D00024BF30C830C144BF04680C6070470000C1
:1001E0000023002400250026103A28BF78C1FBD840
:1001F000520728BF30C148BF0B60704766292EF0F8
:100200009385642900F00A81782900F043817329DD
:1002100000F03B86002070471FB52EF0C7FC00F0B1
:100220009DFE0400002000212DF082F9E0601FBD3A
:1002300010B510BD00F0D4FF1146FFF7EDFF27F019
:100240000FFE01F085F903B4FFF7F2FF03BC07F0DE
:1002500030FA00000948804709480047FEE7FEE7FA
:10026000FEE7FEE7FEE7FEE7FEE7FEE7FEE7FEE766
:1002700004480549054A064B7047000041510008F3
:1002800089010008588B002058CB002058AB002073
:1002900058AB0020704753EA020C00F069802DE94A
:1002A000F04B4FF00006002B1FBFB3FA83F503FAA3
:1002B00005F424FA05F65E4012BF1643B2FA82F541
:1002C00002FA05F4C5F120051EBF22FA05FC44EA36
:1002D0000C04203556EA044C4FEA144418BF641C41
:1002E0004FF000084FF00009904271EB030C39D336
:1002F000002919BFB1FA81F701FA07F6B0FA80F7C1
:1003000000FA07F6C7F120071EBF20FA07FC46EAED
:100310000C062037B6FBF4FCA7EB0507103F07F0EF
:100320001F0BCBF120062CFA06F60CFA0BFB44BF90
:10033000B3460026202FA4BF5E464FF0000B5BEAB9
:10034000060C08BF4FF0010B19EB0B0948EB060830
:10035000ABFB027C06FB02CC0BFB03CCC01B71EB9E
:100360000C01C1E70B46024641464846BDE8F08B0A
:1003700013B5084318BF4FF0FF300146AFF30080BC
:10038000BDE81C40704700000FB4044910B503AA33
:10039000029800F07FFD10BC5DF814FBF403002010
:1003A0000FB41CB5074B06AA7B446946009005981C
:1003B00000F041FD0020694600F050FD1CBC5DF8D6
:1003C00014FB0000B10A000070B50C460546012A76
:1003D00005D02878800600D5EA69002302E00123D1
:1003E00005E05B1C934202D2E05C0028F9D1A869C9
:1003F000E618C01AA861286A184428622846AFF394
:10040000008004E0D5E9012114F8010B9047B442C3
:10041000F8D32846AFF3008070BD00002DE9F0410D
:100420000646002410687529314616A510D0AFF392
:100430000080002802DA404213A507E031688A07ED
:1004400001D512A502E0490704D511A5012401E058
:10045000AFF3008000210A2206F1240709E0B0FB77
:10046000F2FCB0FBF2F302FB1C003030785418466B
:10047000491C0028F3D123462A463046BDE8F04106
:1004800000F0D7BA000000002D0000002B00000093
:100490002000000070B504460D4621461068AFF3F9
:1004A00000802188090502D50F4A7A4402E00E4AED
:1004B0007A440E32002104F1240305E000F00F0617
:1004C0000009965D5E54491C0028F7D1207800236E
:1004D000000704D5702D02D009B102231132204645
:1004E000BDE8704000F0A5BAAEE902002DE9F05F6A
:1004F000894604464FF0000ADFF824B1FB44C0F8F7
:1005000020A02046E168884700287DD0252806D015
:10051000D4E901219047206A401C2062F1E70025C0
:100520005F462046E16888472028064607DB312ED3
:1005300005D2B81910F8200C08B10543F1E7A80757
:1005400001D525F00405C4F81CA00027C4F818A0A4
:100550002A2E09D030462CF0E3FF38B304EB87088D
:10056000303EC8F8186019E059F8041B204604EB27
:1005700087029161E1688847012F064618D1E0693A
:10058000002820DA25F020051DE0D8F8180000EB3F
:10059000800006EB40003038C8F818002046E168BB
:1005A000884706462CF0BCFF0028EED1012F0AD068
:1005B0002E2E08D12046E16888477F1C0646022F70
:1005C00045F02005C4DBA069002803DA404245F06D
:1005D0000105A061E80701D025F01005A6B1A6F13C
:1005E0004100192802D8203645F400654A463146B4
:1005F000204625604D46FFF701FE60B1012807D077
:10060000ED1D25F0070000E007E000F1080978E79C
:1006100005F1040975E730467AE7206ABDE8F09FE6
:1006200084E902000EB5054614460E4613A000F0FC
:100630004EFC284600F04BFC16A000F048FC30466B
:1006400000F045FC15A000F042FC00218DF80B10D5
:100650000A210DF10A008DF80A1008E094FBF1F26E
:1006600001FB124294FBF1F4303200F8012D002C12
:10067000F4DC00F02CFC00F01FFC00002A2A2A20E9
:10068000617373657274696F6E206661696C65640D
:100690003A2000002C2066696C6520002C206C69D3
:1006A0006E65200040EA010310B59B070FD1042AB4
:1006B0000DD310C808C9121F9C42F8D020BA19BA2D
:1006C000884201D9012010BD4FF0FF3010BD1AB192
:1006D000D30703D0521C07E0002010BD10F8013BE7
:1006E00011F8014B1B1B07D110F8013B11F8014B0E
:1006F0001B1B01D1921EF1D1184610BD40EA010327
:10070000024630B59B0710D14FF0013400E008C21B
:1007100008C91D1B9D4315EAC41FF8D013F0FF0143
:1007200002F8011B0DD01B0AF8E711F8013B002B62
:1007300002F8013B05D011F8013B002B02F8013B08
:10074000F3D130BD10B5431C02E010F8011B71B1AC
:100750008107FAD14FF0013202C88C1A8C4314EA97
:10076000C211F9D0C01A0A0603D0C01E10BDC01AAB
:1007700010BD0A0401D0801E10BD0902FCD0401E2D
:1007800010BD032A40F2308010F0030C00F01580F9
:1007900011F8013BBCF1020F624498BF11F801CB84
:1007A00000F8013B38BF11F8013BA2F1040298BFE9
:1007B00000F801CB38BF00F8013B11F0030300F053
:1007C0006780083AC0F0088051F8043B083A51F8B5
:1007D00004CBA0E80810F5E7121D5CBF51F8043BFC
:1007E00040F8043BAFF30080D20724BF11F8013B6F
:1007F00011F801CB48BF11F8012B24BF00F8013BD1
:1008000000F801CB48BF00F8012B7047431A28BFFE
:100810009A427FF6B6AF10441144032A40F2268074
:1008200010F0030F1EBF11F8013D521E00F8013DEC
:1008300010F0030F7FF4F6AF11F0030300F06483B0
:10084000083AC0F00B8051F8043D083A51F804CD45
:1008500040F8043D40F804CDFFF7F3BF121D5CBF24
:1008600051F8043D40F8043DAFF30080D20724BFA7
:1008700011F8013D11F801CD48BF11F8012C24BF3A
:1008800000F8013D00F801CD48BF00F8012C704789
:1008900010B5203AC0F00B80B1E81850A0E818500D
:1008A000B1E81850A0E81850203ABFF4F5AF5FEA5D
:1008B000027C24BFB1E81850A0E8185044BF18C902
:1008C00018C0BDE810405FEA827C24BF51F8043BA9
:1008D00040F8043B08BF7047D20728BF31F8023BFD
:1008E00048BF11F8012B28BF20F8023B48BF00F891
:1008F000012B704702F0FF0343EA032242EA02425F
:1009000000F024B84FF000020429C0F0128010F06B
:10091000030C00F01B80CCF1040CBCF1020F18BFDB
:1009200000F8012BA8BF20F8022BA1EB0C0100F06E
:100930000DB85FEAC17C24BF00F8012B00F8012B41
:1009400048BF00F8012B70474FF0000200B5134676
:1009500094469646203922BFA0E80C50A0E80C50DF
:10096000B1F12001BFF4F7AF090728BFA0E80C5090
:1009700048BF0CC05DF804EB890028BF40F8042B89
:1009800008BF704748BF20F8022B11F0804F18BFF6
:1009900000F8012B7047000030B44FF0013C50F8D4
:1009A000042B51F8043BCCFA52F4D51A20D1FCB9EF
:1009B00050F8042B51F8043BCCFA52F4D51A17D155
:1009C000B4B950F8042B51F8043BCCFA52F4D51AC0
:1009D0000ED16CB950F8042B51F8043BCCFA52F408
:1009E000D51A05D1002CDAD030BC4FF0000070478A
:1009F00029BAB1FA81F111F01801D1F12000844037
:100A0000F2D1CA40CB4012F0FF0213F0FF0330BC1A
:100A1000D01A7047704770477047704710B500F0A4
:100A2000A1FA006810BD10B5044600F09BFA0460FE
:100A300010BD2DE9F0470D4699469246044600F157
:100A400024080168880604D5E06921F010012160BE
:100A500000E00120A84201DD471B00E00027A1695A
:100A60007A1902EB0900081AA0612078C00602D4A6
:100A70002046AFF30080002608E0D4E901211AF8EF
:100A800006009047206A401C761C20624E45F4DB2D
:100A90002078C0060AD52046AFF3008006E0D4E9EE
:100AA000012130209047206A401C2062381EA7F1A7
:100AB0000107F4DC07E0D4E9012118F805009047AC
:100AC000206A401C2062281EA5F10105F3DC2046A7
:100AD000AFF300802078000602D50220BDE8F08741
:100AE0000120FBE72DE9F04F1C4683460E468BB0F4
:100AF000D2E90030149DC10F009120F00041080D93
:100B000001D0012200E00022801A0027DA1B61EBED
:100B1000005191460A438846A0F2324A0AD0002189
:100B200008462EF0F1F810F4400F14D00099A1B14E
:100B3000400213E0012D02D00020302105E0E04307
:100B4000CDE9060705E03154401CA042FBDBCDE9AE
:100B50000674089529E0002005E00002002801DA6B
:100B6000022000E00120012D08950FD00021CDE9E1
:100B700004103046CDE902A4CDE9009809AA06A9DF
:100B800000F04CFA0790099810B105E00121EEE75A
:100B9000102108462EF0B8F8012D06D1DDE9061027
:100BA000641C2144884200DA0897079806AC375441
:100BB00094E80E00CBE90012CBF808300BB0BDE88A
:100BC000F08F2DE9F04F88460446D21D22F0070130
:100BD000ADF5477DD1E90001CDE9BE012CF02AFB3E
:100BE0000246BF98C00F01D02D2007E02068810782
:100BF00001D52B2002E0202101EAC000032AC09089
:100C000001D0072A05DB03464146204600F0C6F91D
:100C100008E12078800601D5E06900E0062040F276
:100C2000F123B8F1650F814606D0B8F1660F16D0F2
:100C3000B8F1670F6BD12FE00020B9F53C7F009031
:100C400001DC09F10103BEAA01A9C1A8FFF74AFF0F
:100C5000DDE9C170002609F10105834644E0012069
:100C60004B4600904FF00047BEAA01A9C1A8FFF76C
:100C700039FFDDE9C2B0C1995D46002610B909F11E
:100C800001000D18B9EB050003D4C0F1FF3609F1DE
:100C90000105A5EB090028E0B9F1010F01DA4FF0D9
:100CA0000109002099450090484600DC0346BEAA91
:100CB00001A9C1A8FFF716FFDDE9C1704D46002666
:100CC0008346207800070AD4AB4500DA5D4601A8C8
:100CD000012D04DD411911F8011C302907D04F45C1
:100CE00002DA17F1040F04DA012082460FE06D1ECC
:100CF000EEE7002F02DCED1B3E4403E0781CA84227
:100D000000DD7D1CB81B00F1010A4FF00047207880
:100D1000000703D4AA4501DB4FF0FF3A0021B7F1E9
:100D2000004F0DF217388DF8171324D002202B2313
:100D3000002F01DA7F422D230A21021EA0F10100BB
:100D400000DC5FB197FBF1FC97FBF1F201FB1C7C2F
:100D500017460CF1300C08F801CDEEE7A8F10100C0
:100D600003702188090501D5452100E06521A0F126
:100D7000010800F8011CC098C4A9A1EB0807FF1DD9
:100D800000B10120411901EBEA70A1693844081A49
:100D9000401EA0612078C00602D42046AFF3008038
:100DA000C09828B1D4E901219047206A401C2062F4
:100DB0002078C00622D52046AFF300801EE0002E2A
:100DC00004DBB34502DD01A8805D00E03020D4E9FA
:100DD00001219047206A401C2062761CAAF1010084
:100DE0005FEA000A0AD100F0B9F8C0680168405C07
:100DF000D4E901219047206A401C2062281EA5F1F9
:100E00000105DCDC07E0D4E9012118F8010B90476B
:100E1000206A401C2062381EA7F10107F3DC20463F
:100E2000AFF3008003200DF5477DC8E601694A1C39
:100E300002610878704700B58FB0CDE9013100211B
:100E4000059105497944CDE9031011466846FFF73D
:100E50004DFB0FB000BD0000E5FFFFFF0A6802F880
:100E6000010B0A60704710B5436913B1AFF30080FE
:100E700001E0FFF7A9FA012010BD127800F124016A
:100E80000A7000224A700122EDE711684FF0FF322C
:100E9000E9E70000074B70B50D467B44FFF7CBFF39
:100EA0000446284600F08DF910B14FF0FF3070BDB8
:100EB000204670BD339D000010B5002000F085F97C
:100EC000FFF7B6F9BDE81040012006F0F2BB10B5FF
:100ED000044602E0641C06F0EDFB20780028F9D1FE
:100EE00010BD431A28BF9A427FF6D2AC1044114479
:100EF00010F0030F1EBF11F8013D521E00F8013D16
:100F000010F0030F7FF4F6AF103AC0F00A8010B56E
:100F100031E9185020E91850103ABFF4F9AFBDE894
:100F20001040530724BF31E9081020E9081044BFDE
:100F300051F8043D40F8043D12F0030F08BF70471C
:100F4000D20728BF31F8023D48BF11F8012C28BF55
:100F500020F8023D48BF00F8012C70470048704758
:100F60002001002000487047000100201FB584B018
:100F700000200A9C06AB04AA02A90094AFF30080EB
:100F800018B1DDE9020108B010BD0348204000F0AF
:100F900005FB00200146F6E70000207C2DE9F0412A
:100FA0001F46044603260168072A01F4006004DB9B
:100FB00008B116A505E016A503E008B115A500E0E7
:100FC00015A521F010002060A069C01EA0610FB11E
:100FD000401EA0612046AFF300804FB1D4E901214B
:100FE00038469047206A401C2062C01C206206E000
:100FF000206AFAE7D4E9012115F8010B9047761E23
:10100000F8D22046AFF30080BDE8F0814E414E009B
:101010006E616E00494E4600696E66002DE9FF4F15
:101020000446ADF5437DD1AB93E82500D099DDF8BA
:1010300054830091CDE90102C0AAC1A903A800F020
:101040000DFA0346C198D499064641B11D446D1C62
:10105000012D04DAC5F10101012508440B44A6461F
:101060004FF0FF324FF0390B002124E0401EB04218
:1010700001D300270CE0DDF800C387083CF81770A7
:101080004FEA807C4FEA1C7C27FA0CF707F00F0729
:101090006D1E092F0EDA002A02DB303204F8012B14
:1010A0005A46002903DD491E04F8012BF9E7002107
:1010B0003A4600E0491C08B1002DD7DC4FF0010C86
:1010C000B8F1020F08D0B8F1010F07D0A0B1401E4F
:1010D000B04205D300270CE0002522E0022520E0E5
:1010E000C09F850837F8155087073F0FFD4005F072
:1010F0000F07052F02DB04E04FF000074FF000055B
:1011000007E003DC002901DCD50701D0012500E060
:1011100002250FB14FF0000C022D02D0BCF1000FE0
:1011200022D04FF00009DDF800A313E0401EB042CA
:1011300001D300270BE04FEA90083AF818704FEA05
:1011400080784FEA187827FA08F707F00F070FB1F1
:10115000012004E00028E9D1B9F1000001D04FF0EE
:10116000000C022D00D10546012D02F101000AD02C
:1011700010B1303204F8012B5846002916DD491E03
:1011800004F8010BF9E718B1313204F8012B06E03D
:10119000312004F8010BD4985B1C00B9491E3020A3
:1011A000002903DD491E04F8010BF9E7C498036028
:1011B000C598C0F800C00DF5477DA4EB0E00BDE852
:1011C000F08F007B00F08000704710B500F0CEF982
:1011D000BDE8104000F0C5B900487047000100208C
:1011E0007546FFF7F9FFAE4605006946534620F005
:1011F0000700854618B020B5FFF73AF8BDE8204053
:101200004FF000064FF000074FF000084FF0000BC2
:10121000AC46ACE8C009ACE8C009ACE8C009ACE831
:10122000C00921F007018D4670470000810B43F291
:101230006D425143490B01EB107101EB5070704747
:101240002DE9FF5F804600252F46DDF838A02CE011
:1012500001990020044631F817B021E0544503D22B
:10126000039931F8141000E000210BFB0100B0B12C
:101270003E19002102E028F815106D1CB542FAD97C
:1012800038F81610014489460846FFF7CFFF6FF47F
:101290001C7100FB01F209EB021128F81610641C06
:1012A0005445DBD30028D9D17F1C02988742CFD385
:1012B000284604B0BDE8F09F2DE9FF4F87B003AC8E
:1012C00001230025159EADF8182084E80B000A9B29
:1012D0000121DBB1B3FA83F0C0F11F0783EA5300A9
:1012E0000DF10C0B80EA900080EA101080EA1020CB
:1012F00080EA104000F00100784021EA00045BF829
:101300002400028001A840F8241072E001801698A1
:1013100008B10021016001200BB0BDE8F08F0DF194
:10132000040858F8242000925BF82410C4F101044A
:101330005BF824000B46FFF783FF48F824000A9966
:101340006D000120B84008420ED0059806AB009011
:1013500058F824205BF82410C4F101045BF8240041
:10136000FFF76EFF48F82400149890B358F8240053
:10137000B0423ED9811B1498002827DD4FF00009A8
:1013800048464A465BF82430DFF8C0E116E033F8FF
:1013900012C01CEB000010D041F6372C824600FB37
:1013A0000CF040F2712C0EEBC000400F00FB0CF86B
:1013B000BAEB081F01D04FF00109521C8A42E6D354
:1013C00033F811C04844604423F811005B46002004
:1013D00009E00EE053F8242000EB010C32F81CC0A9
:1013E00022F810C0401CB042F4D301A80D4440F8CC
:1013F00024607F1E93D5169800B1056001A850F8AF
:10140000240089E72DE9F0438946844600210A46F5
:101410000B461DE04B4502D23CF8134021444FF0EF
:101420000A0800252C46B1FBF8F6970708FB1616AC
:101430003F0FB1FBF8F106FA07F72F43521CBDB27C
:1014400006B11046641C042CEDD32CF813505B1C21
:101450004B45DFD30029DDD1BDE8F0832DE9FF4FF7
:10146000824689B00526DDF860B035E0042E0DDA3D
:1014700022464FF40050ADF804000120009001AB6B
:1014800003A906A8FFF7DCFE074600E0002706EBED
:10149000860000EBC602DDE9160100F086F80024A4
:1014A0000DF118080DF10C09C0F30C0510E0BC4259
:1014B00002D238F8140005442846FFF7B7FE6FF44F
:1014C0001C71414305EB0111054629F81410641CF9
:1014D000BC42ECD3002DEAD1301EA6F10106C5DCDA
:1014E0000025BBF1000128460AF5BD7609DD0B4653
:1014F000514602220090019002903046FFF7DCFE38
:101500000FE00BDA51460522CBF100030090019069
:1015100002903046FFF7D0FE5D4602E00120AAF8B7
:101520007A013346224603A900905046FFF788FE11
:101530000B9A01465046C2F800A0FFF763FF0A99D4
:101540006D1E086028440DB0E7E6000000F0FFFFC4
:1015500010B50446AFF300802046BDE81040FEF70A
:1015600072BE002801D006F0A4B8704710B5002163
:1015700002A000F02DF8012010BD000053494741A2
:101580004252543A2041626E6F726D616C207465F4
:10159000726D696E6174696F6E00000010B500F0C5
:1015A00031F8BDE81040FFF7DCBFB2F120030AD5E7
:1015B000C2F1200320FA02F001FA03F340EA03002B
:1015C00021FA02F1704721FA03F04FF00001704751
:1015D00070B505460C460A2000E06D1C06F06AF85E
:1015E00035B128780028F8D102E0641C06F062F8D2
:1015F00014B120780028F8D1BDE870400A2006F028
:1016000059B8000010B5022803D0410103D50DA13F
:1016100012E0002010BD010101D50FA10CE0C100B6
:1016200001D511A108E0810001D512A104E040001C
:1016300001D513A100E0002115A0FFF7C9FF01208B
:1016400010BD0000496E76616C6964204F70657250
:101650006174696F6E0000004469766964652042B8
:1016600079205A65726F00004F766572666C6F77ED
:1016700000000000556E646572666C6F77000000B4
:10168000496E657861637420526573756C740000EF
:101690005349474650453A2041726974686D6574F4
:1016A000696320657863657074696F6E3A20000025
:1016B00000F0070008220E30AFF300802DE9FC4156
:1016C000114CDFF8488015460E468DF80700402182
:1016D00000222046C0470E4F0DF107010122384677
:1016E00001F042FB384631462A4601F03DFB2046D8
:1016F0004FF480610122C04720464FF480610022F0
:10170000C047BDE8FC8100BF000802404F2300082D
:101710003009002000000000B0B59FED212A2249C9
:101720000446204D20EE020ABDEEC00A10EE100A5B
:1017300091ED020A6870C0F3052020EE010A2870BE
:10174000BCEEC00A10EE101A080AE971A871080C64
:101750006871080E287110EE900A2DF045F99FED82
:101760000C0B53EC102B2CF08DF99FED0B0B53EC65
:10177000102B2CF093FC2CF07DFBE870000A29461E
:10178000A8702046BDE8B040FFF792BF00BF00BF81
:10179000000000000080764000000000E0FFEF4005
:1017A00000FC7F4660000020E4030020014800F0B8
:1017B00038B900BF98060020FEE70000014800F09D
:1017C00079BB00BF14080020014800F073BB00BFC4
:1017D00054070020014800F06DBB00BFF406002054
:1017E000014800F067BB00BFB407002010B50168D6
:1017F0006FF00F02182308A452FA81F2B2FBF3F340
:10180000E35C40F2FF34A1435F2A88BF0431C0E9A2
:101810001613084610BD00BF00061016000610166D
:10182000B0B50468806825684028084625F48025FE
:101830002560636008BF1046A06008BF0A46E260EA
:10184000B0BD7047EFF3108072B6FEE7F0B5B3F5A8
:10185000804F0FD150F82230094C234091E8F0001E
:101860008969234343EA051343EA0623194341EAFE
:10187000074101E06FF0704140F822100020F0BDF8
:101880000000F0CFF0B50A6801F1200750F82230CF
:1018900023F0010340F82230D1E900C3D1E9024529
:1018A0002343082C08BF43F040030C690A6B2B4309
:1018B00023434C692343CC692343F0CF23432B4379
:1018C00033433B431A438B69C96B1A43044B11439F
:1018D00050F82C201A40114340F82C100020F0BD85
:1018E0008000F0FFF0B500EB8200E44AD0F804E09D
:1018F00091E8F810896902EB07520EF040473B432C
:1019000043EA041343EA052343EA06431A43114317
:101910000CF1FE0241EA026141600020F0BD00BF0F
:1019200070470000F8B50022009290F83C20012A90
:1019300001D1022168E0012280F83C200A680A2ACD
:1019400009D393B25B0013FA82F3A3F11E04036878
:1019500003F10C0504E0036802EB420403F11005F7
:1019600007262F68A64027EA06062E608E6806FA2C
:1019700004F42E6834432C604C68062C05D804EB24
:10198000840403F13401053C0BE004EB84050C2CCA
:1019900087BF03F12C01A5F1410403F13001A5F14A
:1019A00023041F250E68A54026EA05050D6095B2A3
:1019B00005FA04F40D682C430C60AD49A1F541749F
:1019C000A3421ED1122A04D10A6842F480020A609E
:1019D00017E022F00103102B13D10B68102A43F4F7
:1019E00000030B600DD10949094A0968B1FBF2F106
:1019F00001EB810149000091009911B10099013971
:101A0000F9E7002180F83C100846F8BD6800002086
:101A100040420F000148002101707047E0030020A0
:101A2000704770B50446006806684568B10717D569
:101A300015F0200114D0216CC90603D4216C41F4A7
:101A400000712164816811F0405F02D1217E00297C
:101A500062D02046FFF7DEFF20686FF012010160C0
:101A6000710714D515F0800111D0216CC90603D47B
:101A7000216C41F400512164816811F4401F2CD085
:101A80002046FFF74DFF20686FF00C010160F10761
:101A900018BF15F0400111D1B1060ED515F08061C7
:101AA0000BD0616C6FF0200541F0020161640560AC
:101AB0002046FFF7B5FF2068056070BD0168C907C3
:101AC000EAD0206C40F480302064204600F0D8F842
:101AD00020686FF001010160DEE7816B11F4401FA7
:101AE00002D081684905CBD441684905C8D48168D2
:101AF00011F0405FC4D1217E0029C1D1416821F09D
:101B000080014160206C20F480502064206CC0056E
:101B1000B6D402F03DFFB3E7C16A11F4700F02D0F2
:101B20008168490595D4416821F02001416002F0A7
:101B3000EBFF3FF58EAF02F02BFF8AE7002841D084
:101B400070B50446006C30B9204600F09BF80020C8
:101B500084F83C006064206CC00635D4206C41F2EF
:101B600002118843424902302064086820F4403062
:101B7000086094E80D0025690E6832430A604168E8
:101B800021F480714160416841EA0521416041686A
:101B900021F04071416041681943364B41608168D2
:101BA00021F400618160E16882681143816081688D
:101BB00021F070618160A26A81689A4206D121F0A9
:101BC00040510CE00120704701204CE0114381603E
:101BD000816821F040518160E16A8268114381602F
:101BE000816821F00201816094F82020217E8368C1
:101BF00043EA4101816041686AB141F400611E4AD3
:101C00004160416821F460414160616A02EB413109
:101C10004268114301E021F400614160174BC16A41
:101C200021F47001C162E269616903EB0252C36A87
:101C30001A43C262826822F40072826094F83020F3
:101C4000836843EA42228260826822F48062826072
:101C5000826842EA81210122816000206064216C57
:101C600062F301012164002184F83C1070BD00BFC3
:101C7000042301400100000F00E0FFFF0000F0FF1F
:101C80007047000070B586B00446016824480026FD
:101C9000CDE90466814240D18349009600F5684051
:101CA0004A6942F480724A614A6902F48072009281
:101CB000009A00960A6842F004020A60096801F07E
:101CC00004010091032103960291042101910099DE
:101CD00001A900F061FA134D4FF40050124B4FF47C
:101CE00000614FF48062C5E906062846C5E908662A
:101CF000C5E90036C5E90266C5E9042100F088F9A6
:101D000008B1FFF79FFD122003210022AC63A563F9
:101D100000F058FC122000F049FC06B070BD00BF76
:101D200000200140F4060020106402407047B0B566
:101D300044790223012C19D0037102F0100240F6FD
:101D4000FE7304689340256825EA0303D1E9005136
:101D500029439140194300232160C021914022680A
:101D600022EA010121600121437101711846B0BDD1
:101D7000704710B5044600680168890413D5416BAB
:101D8000890410D504212171216941F001012161EB
:101D90004FF400514163016821F4805101602046F5
:101DA000FFF7E6FF20680168890002D5416B8900D2
:101DB00000D410BD04212171216941F0020121618B
:101DC0004FF000514163016821F0805101602046CD
:101DD000BDE81040FFF7AABF78B110B504460079FE
:101DE00020B900206071204600F00AF8022001218D
:101DF000207100202061217110BD0120704700007A
:101E0000F0B587B00446016826480026CDE905668E
:101E1000814245D12449019600F5C6300A6942F055
:101E200000520A610A6902F000520192019A019679
:101E30000A6842F001020A60096801F0010101919B
:101E400003210496039130210291019902A900F027
:101E5000A3F9164D16494FF0606040274FF4807C7F
:101E60004FF4005E4FF400624FF48063C5E9001048
:101E70002846C5E90866C5E90276C5E90432C5E920
:101E800006EC00F0C5F808B1FFF7DCFC36200021B5
:101E90000022AC63A56000F095FB362000F086FBC5
:101EA00007B0F0BD007400403038024054070020F5
:101EB00088600240F8B504460020544A082100908A
:101EC000D4E9166015683768814039420CD0226821
:101ED00013685B0708D5136823F004031360B1602F
:101EE000616D41F00101616501218140394208D0F5
:101EF00022685269120604D5B160616D41F0020199
:101F0000616504218140394208D022681268920735
:101F100004D5B160616D41F004016165102181401B
:101F2000394217D020680268120713D5B1600268E1
:101F30000168520306D4C90506D4016821F00801DE
:101F4000016001E0080301D4216C00E0A16C09B13B
:101F500020468847E16D202000FA01F23A4233D052
:101F600020680368DB062FD5B26094F8353002682C
:101F7000052B15D122F016020260426922F0800280
:101F80004261226C0AB9A26C1AB1026822F00802FE
:101F900002603F208840B06001F027FE216D2FE0F5
:101FA0000168520308D4C9050AD4016821F0100160
:101FB000016001F01AFE03E0080301D4616C00E047
:101FC000E16B09B120468847606DF0B1606DC007D4
:101FD00015D005214FF4165084F83510B5FBF0F0FC
:101FE00021680A6822F001020A60009A01328242E6
:101FF000009202D80A68D207F7D101F0F6FDE16C31
:1020000019B12046BDE8F8400847F8BD6800002037
:102010002DE9F041044600F09FF9ACB105460220DD
:1020200084F835000020216884F83400086820F026
:10203000010008600868C00709D000F08DF9401B56
:10204000052839D82168F5E70120BDE8F081086846
:10205000271D304AE8CF00EA020ED4E9050CD4E986
:10206000072843EA0E032B4333433B431843636A79
:1020700040EA0C00104340EA0802042B04D1D4E9E2
:102080000B05104340EA05020A60042B486920F062
:10209000070040EA03022CD1D4E90A63324343B378
:1020A000BCF5005F0CD0BCF1000F18D1022E19D086
:1020B000012E0ED0002E14E003252027032024E05B
:1020C000032E16D8012540270120DFE806F01E0B5D
:1020D0001E02A3F1C070B0FA80F0400904E0032EA4
:1020E00003D306D1C3F3006018B1012540270120B6
:1020F0000BE020464A61FFF779FBE16D3F220027A4
:10210000012502FA01F181600020676584F83550ED
:10211000BDE8F0813F8010F0B0B501F0E9FE28D0B5
:102120000120A56D84F8340094F8350001281DD1F4
:10213000022084F83500002060652046FFF770FB20
:10214000E26D3F232068216C03FA02F2AA60026864
:1021500042F01602026019B1016841F00801016005
:10216000016841F0010101600020B0BD002084F849
:1021700034000220B0BD0000B0B5044600F0ECF819
:102180000546FB48611C007818BF044400F0E4F8E1
:10219000401BA042FAD3B0BD2DE9FC4F634A08248E
:1021A0004FF0010B4FF000094FF0000A9042604AD7
:1021B00008BF072402444FEAB223072B38BF4FEA77
:1021C000B22400940023202B08BFBDE8FC8F0F68C9
:1021D0000BFA0AF6374200F0A2804F6807F00308B6
:1021E000A8F10104012C18D8032285684FEA4A0E91
:1021F00002FA03F425EA040CCD689D4045EA0C057B
:102200008560C7F3001505FA0AFC4568B54345EA41
:102210000C056FEA040C45600BE003249E469C40CD
:102220006FEA040CB8F1030F03D19E464FF0030888
:1022300020E0C4688D6804EA0C0405FA0EF52C430E
:10224000B8F1020FC46015D109F01C040F2202FA84
:1022500004F86FF0030202EA5A0707443D6A25EAD0
:1022600008080D6905FA04F444EA08043C624F6862
:1022700007F00308056808FA0EF405EA0C052C437C
:1022800017F4403F04604AD000222AF0030701926D
:102290002A4A146844F48044146014680F2204F439
:1022A0008044019409F00C0402FA04FC214A019DC7
:1022B00096461744224ABD589046009A25EA0C05D6
:1022C00002FA04F42C4347F80840DEF808404F684F
:1022D000FA0244EA0605184A58BF24EA0605CEF871
:1022E0000850BD029446126842EA060458BF22EA2A
:1022F0000604CCF80040BD03DEF8042042EA0604E0
:1023000058BF22EA0604CEF80440FD03DEF80020A0
:1023100042EA060458BF22EA0604CEF8004009F15A
:10232000040902330AF1010A4DE700BF001C024014
:102330000000FEBF003C01400C3C0140443802401C
:1023400008FCFFFF0069084018BF01207047002A01
:1023500008BF09048161704769480068704700BF81
:10236000F8B528B3044690F83D0020B902F09CFD72
:10237000204600F08DF802F0DBFC016841F40041DA
:102380000160016821F40041016000F0DBF93B4984
:1023900000253B4A88424FF0000138BF012190429E
:1023A00038BF01256368374A934238BF0D460DB1E7
:1023B0000120F8BD34494FF47A77B0FBF1F521687C
:1023C0004E6826F03F062E434E604FF496766E43DD
:1023D000934228BFB6FBF7F56A1C0D6A25F03F054E
:1023E0002A434CF6FF750A62CA69AA43274DAB42DD
:1023F0000AD85B000138B0FBF3F001306FF31F30F7
:10240000042898BF042013E0A56801383DB11925C0
:102410006B4302F0F9FC0AD000F5804004E003EBC6
:10242000430302F0F1FC02D000F5004000E001207F
:10243000104304F10C06C861E0690A6822F0C0028A
:102440001043226A104348F2FF32086088689043C4
:102450006CCE184310438860C86820F0FF00284302
:102460003043C86002F0DCFB00202021206484F8A7
:102470003D10206384F83E00F8BD00BF80841E003C
:1024800000093D00A186010040420F00A086010026
:10249000B0B586B001681448814222D10025134CA2
:1024A000122200F5DE300095216841F02001216004
:1024B000216801F020010091042105910321CDE95B
:1024C0000351CDE90112009901A9FFF765FE0095BE
:1024D000206940F480002061206900F480000090B1
:1024E000009806B0B0BD00BF005800403038024030
:1024F0001F48034900780A6810440860704700BF0D
:10250000508B002080B50B48016841F400710160D8
:10251000016841F480610160016841F480710160EB
:10252000032000F075F80F2000F006F800F022F804
:10253000002080BD003C024070B50D4E04464FF4B3
:102540007A713078B1FBF0F088490968B1FBF0F09E
:1025500000F0E2FC01250F2C08D838B94FF0FF300D
:1025600021460022002500F02DF87460284670BD39
:102570000400002082B000200B4901904A6842F418
:1025800080424A604A6802F480420192019A0090B7
:10259000086840F080500860086800F080500090A3
:1025A000009802B0704700BF40380240002806D4AF
:1025B000734601F0A2FC9E46014A42F82010704783
:1025C00000E100E0F0B5184B4FF0FF361C68C4F393
:1025D0000224E51E84F0070438BF002506FA05F73B
:1025E000BA43042C28BF042406FA04F4A14300F0E3
:1025F0000F04A940043C11432344044A09010C334D
:10260000B0F1FF3FC8BF83181970F0BD00E400E0CF
:1026100005494FF6FF030A681A4060F30A2203488F
:1026200010430860704700BF0CED00E00000FA05A1
:102630002DE9F041002857D03F4B04468846D3F897
:10264000000400F00700884204D283F8008401F0FF
:10265000C6FA49D12068810711D5410703D5996889
:1026600041F4E0519960010703D5996841F4604154
:102670009960A1689A6822F0F00211439960C0073E
:102680002BD101F0ACFA04D983F8008401F0A7FA49
:102690002AD12068410705D5E1689A6822F4E05202
:1026A00011439960000706D52069996821F46041BB
:1026B00041EAC00098601C4600F05EF8A1681F4A1D
:1026C000C1F30311515CC840284908601C480068E8
:1026D000FFF732FF0020BDE8F0816068811E02290B
:1026E00005D21968890107D40120BDE8F0810128CD
:1026F0001DD119688903F7D599681D4621F003019A
:1027000008439860FFF728FE064641F28837606864
:10271000A9682B4601F00C01B1EB800FB1D0FFF797
:102720001BFE801BB842F2D90320BDE8F081196876
:102730008907D9D5E0E700BF00380240E0EE020883
:102740000800002009480A490A4A00680968C1F3DC
:102750008221515CC840704704480549054A006819
:102760000968C1F34231515CC840704768000020DD
:1027700008380240F0EE020810B5134C606800F013
:102780000C011248082903D004291CD1104810BD9F
:102790002168236801F03F0221685B02C1F38811C0
:1027A00005D4A1FB00010023FDF775FD03E00848F7
:1027B0004843B0FBF2F021680222C1F3014102EB71
:1027C0004101B0FBF1F010BD043802400024F400D8
:1027D00000127A002DE9FC4100285FD00446007801
:1027E000C24EC0070BD0B06800F00C00042840F0C7
:1027F0008E803068800302D5606800284ED0207833
:10280000800718D5B06810F00C0F07D001F01CFE3F
:1028100040F095807068400200F191803068800738
:1028200002D5E068012839D12069316821F0F8012A
:1028300041EAC00030602078000732D42078400799
:1028400042D4A7693FB301F0FFFD40F0A980012FFA
:1028500024D0E169706800F480028A421ED1216AA6
:1028600000F03F028A4219D147F6C071626A014006
:10287000B1EB821F12D1A16A9F4A02EBC13100F471
:1028800040326FF30F018A4208D1E16A00F07060B4
:10289000B0EB016F02D10020BDE8FC810120BDE852
:1028A000FC816169924800296AD00121C0F8801E2C
:1028B000FFF752FD0546706F8007BFD4FFF74CFD50
:1028C000401B0228F7D9C9E0306C10F080580AD1BB
:1028D00000200190306C40F080503064306C00F08B
:1028E000805001900198834F3868C0053AD4386809
:1028F00040F480703860FFF72FFD05463868C0054A
:1029000030D4FFF729FD401B0228F7D9A6E001F0DB
:102910009BFD03D1706840023FF56BAF6068B0F576
:10292000803F07D0B0F5A02F40F08280306840F49F
:1029300080203060306840F48030306082E0E068B1
:1029400000284CD06A4801210160FFF705FD0546CB
:10295000306880073FF568AFFFF7FEFC401B022898
:10296000F6D97BE0A068012805D0052848D1306F52
:1029700040F004003067306F40F00100306749E0FC
:102980000021C0F8801EFFF7E7FC0546706F800746
:102990007FF554AFFFF7E0FC401B0228F6D95DE05D
:1029A0005349002088460866FFF7D6FC0546022FEB
:1029B0000AD147463068800153D5FFF7CDFC411B53
:1029C00003200229F6D967E7306880017FF563AFFD
:1029D000FFF7C2FC411B03200229F5D95CE74448FC
:1029E00000210160FFF7B8FC0546306880077FF5DD
:1029F00022AFFFF7B1FC411B03200229F5D94BE7B9
:102A0000316F002821F001013167316F21F004019D
:102A1000316744D0FFF7A0FC054641F28837306F9C
:102A200080074BD4FFF798FC401BB842F7D915E05C
:102A30003168002821F480313160316821F480212F
:102A4000316044D0FFF788FC0546306880033FF5CD
:102A5000D6AEFFF781FC401B6428F6D90320BDE801
:102A6000FC811C341FCC0843234940EA821001EB4F
:102A7000C33140EA04606FF30F0108437060012026
:102A80003866FFF769FC0446306880013FF503AF04
:102A9000FFF762FC011B03200229F5D9FCE6FFF7D2
:102AA0005BFC054641F28837306F800706D5FFF79B
:102AB00053FC411B0320B942F6D9EDE6B8F1000FF3
:102AC0007FF4BFAE306C20F080503064B9E6FFF781
:102AD00043FC0546306880037FF591AEFFF73CFC70
:102AE000411B03206429F5D9D6E600BF0038024017
:102AF00000004742007000400000FFFFA0B110B589
:102B00000446407920B900202071204600F00EF8DC
:102B1000022060712068016841F004010160012019
:102B200060710020A06010BD0120704781B0006876
:102B3000084988420BD1002000900748016841F005
:102B400040010160006800F040000090009801B072
:102B5000704700BF0008065034380240704770B517
:102B600038B10446406A30B10020206104F11400FD
:102B700007E001254BE06068B0F5827F03D004F1E7
:102B80001C00002101600025A56294F8510020B9C5
:102B9000204684F8505000F03DF8022084F851009F
:102BA00094E80F0001F4827102F4044206681144B3
:102BB00003F40062114426F040060660226902F028
:102BC00002021144626902F001021144A26902F496
:102BD00000731944E36903F038031944236A03F0CE
:102BE00080031943A36A03F40053194301600421CD
:102BF00001EA1241626A02F0100211444160C169A7
:102C000021F40061C1610120656584F85100284606
:102C100070BD00002DE9F04F87B0044602A81421D2
:102C2000FDF792FE20684949884233D048498842DE
:102C300040F08980002647480196416941F480515F
:102C40004161416901F48051019101990196016846
:102C500041F002010160006800F0020001900520CF
:102C600006900320CDE90460022003902820029002
:102C7000019802A93848FFF78FFA394D394B4FF4C4
:102C8000806040214FF0C062C5E90032C5E90216FC
:102C900028614BE000272F4E2F494FF005084FF0D9
:102CA00003094FF0020A019730698B4640F48040D7
:102CB0003061306900F480400190019801973068DC
:102CC00040F004003060306800F00400019001988A
:102CD0000197306840F002003060306800F0020078
:102CE00001900198CDF81880CDE90479CDF80CA0B9
:102CF0000820029002AD01F580602946FFF74CFAEA
:102D0000CDE905984FF4806858462946CDE903A7D8
:102D1000CDF80880FFF740FA104D06F5215140200C
:102D2000C5E9001705F1080181E8810105F11400EA
:102D30001421FDF709FE2846FFF76AF908B1FEF7EE
:102D400081FDAC63A56407B0BDE8F08F003800409A
:102D500000300140303802400004024014080020D6
:102D6000B40700205864024070B501F00DFB04BFA9
:102D7000022070BD012084F8500094F85100012811
:102D80002BD161B35AB30320002384F8510063654B
:102D9000E286A2862163A363C4E91033A387E38795
:102DA000A0682268B0F5004F07D1106820F04000FD
:102DB0001060106840F480401060A06C104E0F4D01
:102DC0000C32C0E913630F4BC0E90F35E38EFFF7F8
:102DD000A3F948B101F09FFE02E0022000E00120CB
:102DE000002184F8501070BD20680168490601D4A4
:102DF00001F0AEFF01F0B0F9F2E700BF334F000879
:102E0000154F0008394F00087047704748B370B538
:102E1000044690F8490015460E4628B9002084F86B
:102E20004800204600F020F8206804F10801FEF771
:102E300029FD2068A2683146FEF754FDD4E901025D
:102E4000236B2946FEF702FD2068A16850F8212077
:102E500042F0010240F82120012084F849000020BE
:102E600070BD0120704700002DE9F04F87B0214868
:102E70000178D9BB01214FF0000B4FF00C084FF047
:102E8000030902274FF4805A1C4D1D4E01701A4849
:102E9000CDF804B0016841F001010160006800F064
:102EA00001000190CDF81880CDE904B90397CDF861
:102EB00008A0019802AC05F500602146B0474FF626
:102EC000807000F069FE05F58060B0474CF2337009
:102ED00000F062FE2846B04705F540602146CDF877
:102EE0001880CDE904B9CDE902A7B04707B0BDE825
:102EF000F08F00BFF003002038380240000C024081
:102F0000992100080C4904280A6822F0040208BF2D
:102F100004320A60704700BF411E0020B0EB116F01
:102F20001CBF01207047044AF023516003490B7015
:102F3000072190601160704710E000E023ED00E091
:102F40007047704710B590F83C300222012B2CD00E
:102F500080F83D2002680B68546824F070041C431C
:102F60009368B2F1804F546014D0114CA24211D03A
:102F7000104CA2420ED0104CA2420BD00F4CA242D9
:102F800008D00F4CA24205D00E4CA24202D00E4CEB
:102F9000A24204D1496823F08003194391600022C2
:102FA000012180F83C2080F83D10104610BD00BF84
:102FB0000004004000080040000C004000180040E1
:102FC00000000140004001400004014058B110B52C
:102FD00001F081FD03D101F083FB00F007F801F05F
:102FE0001EFF00F091BF01207047000010B586B0B1
:102FF000044601A81421FDF7A7FC206800F1404019
:103000004FEAB020032800F27780DFE800F0022EBC
:1030100052690020394900900A6942F001020A61B0
:103020000A6902F001020092009A00900A6842F0D8
:1030300002020A60096801F002010091CDE9030073
:103040000220012102904FF4006005910190009848
:1030500001A92B48FFF7A0F81C2000210022FFF750
:10306000B1FA1C20FFF7A2FA46E0002023490090A5
:103070000A6942F002020A610A6902F00202009241
:10308000009A00900A6842F008020A60096801F09C
:10309000080100910221CDE90401CDE902100420CC
:1030A0000190009801A9164800F50060FFF774F838
:1030B00022E00020002200901048016941F0040144
:1030C00001610D21006900F00400009000981E20AD
:1030D000FFF778FA1E2006B0BDE81040FFF766BA89
:1030E000002000900548016941F008010161006974
:1030F00000F008000090009806B010BD3038024083
:103100000004024010B501F0DBFC52D084F83D0011
:1031100001204FF6777384F83C00206882689A4358
:1031200082600A68C2B1102A16D0202A14D0302A30
:1031300012D0402A17D0502A1ED0602A25D0B2F5CE
:10314000005F2ED0B2F5805F30D0702A32D101F00E
:10315000AFFA41F0770128E0816821F07001114356
:1031600041F0070121E001F067FD2068816841F02E
:10317000470121F0300118E001F05EFD2068816810
:1031800041F0570121F020010FE04B68CA68194651
:1031900002F05EF92068816841F0670121F01001BA
:1031A00003E001F085FA41F480418160002001F0E4
:1031B0003CFD10BD0120FAE710B50068B0F1804F6A
:1031C00000D010BD08F096F8012808D00028F8D1EA
:1031D0000A480C2100F0B8F926F0B8FF0AE0074CC5
:1031E0000C21204600F0B0F926F0B4FF20460C2157
:1031F00000F08CF8BDE8104004F076BCD80900203F
:1032000070B501F090FD04BF022070BD01F068FCB4
:1032100067D8DFE801F002101F3ED5E90012EB6825
:10322000206802F0D7F8206850F8181F21F00C0130
:103230000160A96851E0D5E90012EB68206802F04E
:1032400018F9206850F8181F21F440610160A9683E
:10325000090242E02268106A20F480701062D5E909
:103260000036D5E9021060F30716104603F00A0392
:1032700050F81C5F25F0F3053543166A056026F407
:10328000206545EA03231362026822F00C02026003
:1032900023E021684FF2FF06086A20F4805008629C
:1032A000D5E90020D5E90235000202F00A0220EA41
:1032B0000606084665F30F3650F81C5F25F4734583
:1032C00035430E6A056026F4204545EA02320A625B
:1032D000016821F440610160190202681143016034
:1032E0000020002184F83C1070BD58B110B501F0E9
:1032F000F2FB03D101F0F4F900F006F801F08FFDC4
:1033000000F002BE0120704770470000B0B501F028
:1033100017FB84BF0120B0BD0D46104900F026FF09
:1033200001F04FF804D101F094F801D101F0FAF95D
:10333000012065B1082D0DD0042D19BF84F841007E
:1033400084F8450084F83F0084F8430004E001F06D
:1033500087FC01E001F086F90020B0BD6CF604089E
:1033600010B5044600680169890712D5C16889074C
:103370000FD56FF00201016101212177806980077B
:1033800002D001F04AFC01E001F0AEFA0020207703
:1033900020680169490713D5C168490710D56FF046
:1033A0000401016102212177806910F4407F02D07D
:1033B00001F033FC01E001F097FA0020207720684B
:1033C0000169090712D5C16809070FD56FF0080117
:1033D000016104212177C069800702D001F01DFC42
:1033E00001E001F081FA0020207720680169C90618
:1033F00013D5C168C90610D56FF01001016108210D
:103400002177C06910F4407F02D001F006FC01E092
:1034100001F06AFA0020207720680169C90709D005
:10342000C168C90706D06FF001010161204600F0B4
:1034300081F820680169090609D5C168090606D521
:103440006FF0800101612046FFF77AFD2068016975
:10345000490609D5C168490606D56FF040010161EA
:10346000204600F088F820680169890602D5C16805
:10347000890600D410BD6FF0200101612046BDE82F
:103480001040FFF75EBD7047B0B501F04CFC04BFC3
:103490000220B0BD01F024FB37D8DFE801F0020ABA
:1034A00012222068294601F0D3FE206850F8181F28
:1034B0000EE02068294601F0FBFE206850F8181F36
:1034C00016E02068294601F021FF206850F81C1FF3
:1034D00041F008010160016821F0040101602969DF
:1034E0000FE02068294601F03FFF206850F81C1FBC
:1034F00041F400610160016821F480610160296983
:1035000009020268114301600020002184F83C1088
:10351000B0BD58B110B501F0DEFA03D101F0E0F80A
:1035200000F006F801F07BFC00F0EEBC01207047D3
:103530007047704703480078012818BF04F0F0BABC
:1035400007F0A6BA9C0300204FEAB101032984BF0B
:1035500000207047DFE801F0020B050800683430F6
:1035600007E000683C3004E00068403001E000689B
:10357000383000687047704790B110B5044690F835
:103580003D0008B901F071FB01F0D1F82068016934
:1035900021F490410161416921F02A0101F0DDBB74
:1035A00001207047FEB501681448814224D10021F2
:1035B000AD4A00F570400191536943F01003536127
:1035C000536903F010030193019B0091136843F0CA
:1035D00001031360126802F00102009207220592B3
:1035E0000322CDE90312022102914FF4C06101913F
:1035F000009901A9FEF7D0FD06B080BD0010014082
:10360000FEE70000BFB51448144B002201244FF020
:1036100080514FF00065039280F820400276C0E9A7
:103620000945C16280F83040C461C0E90032C0E998
:103630000222C0E90442FEF781FA08B1FEF702F95E
:103640000C206946CDE9014400900348FEF76AF971
:1036500008B1FEF7F7F8BFBD980600200020014032
:103660001CB5104810490160022101911C210091F4
:10367000FEF7B2FB08B1FEF7E5F80A4869460022FA
:103680000024FEF754FB08B1FEF7DCF80548694654
:103690001022CDE90044FEF74AFB08B1FEF7D2F84C
:1036A0001CBD00BFE006002000740040BCB5002037
:1036B0006D49184C01900A6842F480020A600A6859
:1036C00002F480020192019A00900868002240F4FE
:1036D000001008600868002100F4001000900098B5
:1036E0000F20A0470C4D0F20A847102000210022DA
:1036F000A0471020A847382000210022A0473820EA
:10370000A8473B2000210022A0473B202946BDE8D6
:10371000BC400847C5250008AD250008B0B58EB0EF
:103720001B481C4C002206234FF0204510210D920F
:10373000C0E90054C0E902324FF480434FF4805492
:103740000225C0E90421C0E906224264C0E908223A
:103750008263C0E90A42C0E90C3211230A24CDE990
:1037600006256A46CDE909440F24CDE90B13CDE9BE
:10377000041303210894CDE90211CDE9001407A92F
:10378000FFF744FB08B1FEF75DF80EB0B0BD00BF17
:1037900088090020040100A070B586B000253248D9
:1037A000324C002205950095016841F0040101604A
:1037B000016801F0040100F0EAF941F02001016024
:1037C000016801F0200100F0E2F941F080010160A0
:1037D000016801F0800100F0DAF941F001010160B7
:1037E000016801F0010100F0D2F941F0100101601F
:1037F000016801F0100100F0CAF941F00201016016
:10380000016801F0020100F0C2F941F00801016015
:10381000016801F0080100F0BAF941F040010160CF
:103820004FF42041006800F04000009000982046CE
:10383000FEF78DFD01264FF40050CDE903550190B0
:10384000029601AD20462946FEF7A6FC0220294635
:10385000CDE9026604904FF4004001902046FEF747
:103860009BFC06B070BD00BF30380240000402402F
:1038700010B50B480B4B0C4C00214FF48042C0E9B3
:103880000043C0E90211C0E90421C0E90611016248
:10389000FEF766FD18B1BDE81040FDF7D3BF10BDBF
:1038A00074080020A08601000058004080B505483B
:1038B00005490160FFF722F918B1BDE88040FDF726
:1038C000C1BF80BDC80800200008065010B50548DB
:1038D000054B00F068F918B1BDE81040FDF7B2BF24
:1038E00010BD00BFD80800200030014010B50548C9
:1038F000054B00F058F918B1BDE81040FDF7A2BF24
:1039000010BD00BF300900200038004010B58AB05B
:103910001F4880214FF0FF324FF0804300F057F9ED
:103920000991CDE90711CDE90411CDE90211CDE9E5
:103930000011FFF74BFB08B1FDF784FF4FF48050F7
:103940000690134806A9FFF7DDFB08B1FDF77AFFE3
:103950000F48FFF7CAFC08B1FDF774FF00240C48BC
:10396000CDE9044404A9FFF7EDFA08B1FDF76AFFB9
:10397000012069460C22CDE90244CDE9004004480B
:10398000FFF73EFC08B1FDF75DFF0AB010BD00BFB8
:10399000D809002010B58EB000241C21CDE90844C0
:1039A00001A8FCF7D1FF1E4880211E4A8161012138
:1039B000C0E900240461C0E90241FFF707FB08B138
:1039C000FDF740FF0420CDE90B440D904FF400506B
:1039D0000A9013480AA9FFF795FB08B1FDF732FFDB
:1039E0000F48FFF796FD08B1FDF72CFF20200024BB
:1039F00008900B48099408A9FFF7A4FA08B1FDF74D
:103A000021FF60200594CDE9024400220190044882
:103A100001A9FFF739FD08B1FDF714FF0EB010BD85
:103A2000200A00200004004010B586B01448802110
:103A3000144C532340F2E73281610021C0E9004376
:103A4000C0E9021201610591CDE90311CDE9001130
:103A5000FFF7BCFA08B1FDF7F5FE4FF48050029075
:103A6000074802A9FFF74EFB08B1FDF7EBFE04483B
:103A70006946FFF767FA08B1FDF7E4FE06B010BD2E
:103A8000680A002000080040FEB512488021124B51
:103A9000532200F09CF80591CDE9031101912021FA
:103AA0000091FFF793FA08B1FDF7CCFE4FF4805078
:103AB0000290084802A9FFF725FB08B1FDF7C2FEF6
:103AC00004486946FFF73EFA08B1FDF7BBFE06B0B1
:103AD00080BD00BFB00A0020000C004010B50B48AC
:103AE0000B4C00210C224FF4E133C0E90043C0E944
:103AF0000211C0E90412C0E90611FFF73DFD18B13B
:103B0000BDE81040FDF79EBE10BD00BFF80A0020C2
:103B100000100140FEE7FEE72088ADF80600BDF882
:103B200006002088ADF80600BDF806002088ADF834
:103B30000600BDF806002188ADF80610BDF8061095
:103B400041EA002070477820FEF716BB4FF4006171
:103B5000012204F580552846704714460D46064656
:103B600004F070BF0522FCF79DBD20464FF4807124
:103B7000012228470194016841F0020101600168B7
:103B800001F00201019101990194016870470091CF
:103B900000990095016870472146CDE90598CDE967
:103BA000037B029070474FF4827200214FF400743F
:103BB000C0E900320A22C0E90211C0E90411C0E9DB
:103BC0000641C0E90811C0E90A12FEF7C8BF8161C9
:103BD0000021C0E90031C0E9021201617047D3F849
:103BE000000400F0070040457047002084F83400CE
:103BF000012084F835007047C868897E01F03F01D4
:103C000001EB410189001AF00BBFE06800681EF06B
:103C1000F3BB4DF808ED404609F0C6F900285DF801
:103C200008EB7047081A01B200EBE13282EAE13199
:103C30000FFA89F209EBE23389B283EAE23292B2F7
:103C40009142704720464FF4803170470246384613
:103C5000314603F037B8BBF81600BBF81A10728B68
:103C6000009CB146081A0221013000B290FBF1F02D
:103C7000F18A511A6FF00102013109B291FBF2F1A0
:103C80000844704700EB8000502101EB4000A02168
:103C900090FBF1F070472A4621F018BD096801EB4E
:103CA0008002526841F82020013070470168EA68BC
:103CB000B1F90030B1F9021059438A42704701440A
:103CC000ADF85010BDF854100844BDF85210ADF8CE
:103CD000540068880144ADF85210BDF856100844ED
:103CE0007047081ABDF87010013000B27047BDF976
:103CF0005800BDF95A10149A0A9B7047011BADF881
:103D0000E010291908445318ADF8E400101BADF871
:103D1000E630ADF8E200704709B21BB201903046C0
:103D200011F086BE4618BDF86C00ADF87400BDF801
:103D30007000ADF8780002208DF860007047A4EBA9
:103D40000B0110FB05F001EBD030A8F8020006F1E2
:103D50005A0000B23847BBF80010BBF80420511AD3
:103D6000013109B2081A022190FBF1F0BDF8A81048
:103D7000084470470090404611F05EBCC2F38A02CE
:103D8000814003FA00F07047B8F81500C0F38A00CC
:103D90000730C00800FB05F170478DF8440020464D
:103DA000CDE9009A06F0B4BB36F8140F7188F2889A
:103DB000511A70470D980B9ABDF838108DF83440A1
:103DC0001060F0079180704720461CF0E6B8606AEA
:103DD000402289B20DF07ABE284616F0DABE284697
:103DE000FCF7DABD02463846002150470021022286
:103DF00002231FF0D5BB606A50F826001AF0CABD36
:103E000042F2640142F264021FF0D6BC52F80C1C6C
:103E1000022332F8042C009070470446D0E90B20AE
:103E20004FF480650021002300951AF005BD04467B
:103E3000006808301AF01ABD59463A4653463047D2
:103E4000B2FA82F4C4F11A03DA4082F02003C4F11A
:103E5000190270470446D01A05B2002D7047484633
:103E600009F0F7B920464FF400311DF0EDBC2046B3
:103E70001EF0C2BA0398049D069AA9EB0A010090AD
:103E800020462B4623F041BE28464FF480211DF0EA
:103E9000ADBE30461A212A4616F082BE606A19F07D
:103EA0000EBF10EE100A2AF09FBDADF80600BDF857
:103EB00006002088ADF80600BDF806000102A981C1
:103EC0002188ADF80610BDF8061041EA002081B245
:103ED0009142704714460D46064604F0B3BD204695
:103EE0004FF48071002228474FF6FF7009F0FCBBA9
:103EF000044690F834000128704700F01F010122A9
:103F0000400902FA01F17047012084F8460084F864
:103F10003E0084F83F0084F8400084F8410084F8B3
:103F2000420084F8430084F8440084F8450084F893
:103F30003D00002010BD002216F032BE02F03F020C
:103F400002EB420270470F2116F02ABE4DF808ED31
:103F500009F02AF800285DF808EB704702220023D8
:103F6000091A013109B291FBF2F141F6FF720C1806
:103F7000601C01B248467047ADF88C10618B01445B
:103F8000ADF89210E18A081A7047304629461DF0B4
:103F900073BBBBF81400BBF81810328B009CB14601
:103FA000081A0221013000B290FBF1F0B18A511AD7
:103FB0006FF00102013109B291FBF2F10844704740
:103FC00000EB80004000F028704720F4FC720830BD
:103FD00000F4FC7188186084E0681AF021BD204666
:103FE0004FF6FF7100221FF0A6BD04EBD030ADF8F4
:103FF0005800704700EB08031A986FF30F0100EBAD
:1040000045067047BDF8E2000BF1010B0130ADF839
:10401000E200BDF8E6000130ADF8E6007047BBF104
:10402000000FADF87A50ADF8765070470BEB0901F0
:1040300010FB05F001EBD030A8F8040030B238478F
:10404000BBF800100844BBF80410081ABDF8A8100B
:10405000084401307047B6F80110C208C1F38A0164
:1040600011FB05417047B8F81500C0F38A00013014
:10407000400800FB05F1704738461EF0BDB900212D
:104080001DF0C0BC00F00103204626F02BB8002232
:10409000E86800F1180120463047009300231AF029
:1040A000CBBB84F83C00204625F066BA02211CF008
:1040B0001FB8216AA26A521A504301EBA020BCBD6E
:1040C00029463A46434630474FF400311DF0F7B9D0
:1040D00020F816102046314609F0BBB820464FF4B0
:1040E00000311DF06ABCADF8460028440138ADF837
:1040F0004A007047A08ABDF80810BDF80A200144A4
:10410000ADF80810E18A0A44ADF80A20BDF80C2089
:104110001044ADF80C00BDF80E0008444146ADF85F
:104120000E0020461EF075B90698DDE90732AAEBAD
:1041300007010090304623F0E8BC296820460022A1
:1041400001F08ABB0146B4F84050204623F05AB82B
:1041500053EC102B29F064BB416841F02001416011
:10416000416841F0020141600020704751F8201081
:104170002068C26811400022C160294601F058B889
:104180000026CDE91A00284602941C96704738464E
:104190004FF400711DF07FBE384632462B4648472B
:1041A000006850F8247038461DF079BE11980488D4
:1041B00005F15A0000B25047BDF972002CB284429A
:1041C0007047706DF5685047304602F0C2BC20461B
:1041D0001EF074BE013109B291FBF2F17047404606
:1041E00047F6FF7123F00EB82068416821F02001E6
:1041F00041607047C6F164014843642190FBF1F0CF
:104200007047CDF808805846009C1CF062BC2846D8
:104210001CF0E2BD1198058805985A3000B250474D
:104220002146ADF84660ADF842601AF01CBDE86862
:104230004FF4803200F108012046304707F170004A
:104240000E9007F16C000D9070470899DDE90602A9
:1042500016F0F8BD20464FF4E0217047012084F8A5
:104260005100606D00287047521A013212B292FB61
:10427000F3F21144704721F4C041B1F5FA6F704771
:10428000DDF818B001465A4601F009BABDF95C10D4
:1042900022B25046334611F063B9F0684FF4A022C1
:1042A00000F12001204638471C95279231F9100073
:1042B0001A2129907047D8F83000D8F83C10119096
:1042C00014917047204622F035BC64216FF06303DF
:1042D000B0FBF1F202FB03003223704742F2D175CA
:1042E0000646401BB0FA80F07047002110F0A8BFCE
:1042F000ADF87A100C9ABDF8A610414409B28A4272
:104300007047706DF468504720460BF00FBD04FBFA
:1043100003F2642392FBF3F212B270472046214667
:1043200001F0BDB9324601F049BA706DF46803215D
:1043300050479DF8B52042F010028DF8B520704727
:1043400094F8480000F0F70084F848007047C1680E
:1043500001918068019001987047013001FA80F165
:10436000914270470D980E9900B20FB2A7EB000B67
:104370007047324601F0BEB920461CF036BC3846C4
:104380001B21224616F00CBC044690F85000012870
:10439000704720461DF029BAADF85E000D9800B2B6
:1043A000A7EB000B70478DF890005046314612F095
:1043B00038BC00F160012046384730464FF4C02138
:1043C0007047206841F21112016A1142704720467D
:1043D0001DF0C4BA8DF890005046294612F021BC59
:1043E000014605F120001047846B0546FDF7B4BF78
:1043F000002201F07FB9ADF84650ADF842501AF0F6
:1044000032BC706DF4680A21504728461CF0EDBBA1
:104410000499504632461AF0D1BB706DF4680221FF
:10442000504701301FFA80FAA2EB0900013087B231
:1044300070474FF4007101222046284702460B4680
:104440002846314629F01EBBB06800F00C00082851
:104450007047016A40F244421142704760210022D5
:104460001EF02CBE204607F0B4B8D9F80400102185
:104470001DF011BDB8683146006850F82B804046E9
:104480001DF00DBDA068006850F826001EF015B89C
:10449000304629461DF05CB8618B0144ADF806102A
:1044A000218B0144ADF80410E18A091AADF802101D
:1044B000A18A081A7047002010F030B80E4619463D
:1044C0001C461546074607F039B930464FF400211F
:1044D0001DF0E1BC05985A3000B223F08FBAC0F34A
:1044E0004513C1F34514C1F3C4257047ADF834003A
:1044F0009AF808008DF8440084F001002843012850
:104500007047139F504631463A461AF0B5BA01EB50
:10451000D030A8F800000FFA8AF03847707FB6F95B
:104520001430494622460090384623F0EEBA4DF842
:1045300008ED81EA5221C9B223F0D4FC0AF8080040
:104540005DF808EB70472946324643464847B8F8BD
:104550001500C0F38A000330800800FB05F17047A6
:1045600038461DF049BF0D980B9ABDF83810106001
:10457000002091808DF834007047F068042200F12B
:10458000A0012046384700211DF03CB920461C21DF
:10459000002216F005BB42F2640142F2D1721FF014
:1045A0000BB90446D0E90B204FF480610023009141
:1045B00000211AF041B9304659463A46534602F0B6
:1045C000D8BFB4F93010B4F9322070470130B9F8CF
:1045D000303084B2A9F834009C42704794F83C0013
:1045E00000F0EF0084F83C007047A08ABDF80C1082
:1045F000BDF80E200144ADF80C10E18A0A44ADF874
:104600000E20BDF810201044ADF81000BDF81200C7
:1046100008444146ADF8120020461DF0FABE089845
:10462000DDE90632A4EB0B010090484623F06DBA99
:1046300050464FF4403170471C21002216F0B0BAAA
:1046400053EC102B29F02ABD28464FF400211DF011
:1046500026BCDDF84090DDF84880704700F150013D
:104660002046384784F8400084F844007047B9F188
:10467000010FADF82640ADF82240704700F1B001BF
:1046800020463847024628680068C00570475046F3
:1046900012F0C7BA00F580712046304712201FF093
:1046A00007BB0022E86800F1480120461BF08DB9E5
:1046B000D1E90123C9681A4342EA0121826822F440
:1046C0007F4211438160816870470022E86800F1F1
:1046D000180120461BF079B9707802210228704732
:1046E000002084F83C0020467047F0684FF4803288
:1046F00000F1080120463847F0684FF4403200F1DD
:10470000F0012046384700F12801204630474FF499
:104710000071002220462847142014214FF47842CB
:1047200028F050B8016821F0010101607047242091
:1047300084F83D002068C16821F40051C160204622
:1047400000F0B0BE204602F0EBB9D9E90020082104
:1047500016F026BA521A5144013212B2101A02222D
:1047600090FBF2F008447047401AB0FA80F040091C
:1047700070470D4606461DF045B9B14690FBF1F075
:10478000F18A511A6FF001024044013109B291FBE4
:10479000F2F1704700EB8000502101EB40006FF018
:1047A0009F0190FBF1F0704728465146BBF8082066
:1047B0001DF028B92046002100221FF042B900B2A6
:1047C00023F01CB9BDF86C00081A01300FFA80FA0A
:1047D0007047BDF9E0100FFA8BF238462B4610F007
:1047E000BFBEBDF86C00BDF86E50ADF87400BDF8EA
:1047F0007000ADF8780002208DF8600014AF7047AB
:1048000001EBD030A8F806007047ADF89C80ADF8F9
:104810005000BDF8A8007047404629461AF0FAB982
:10482000002316F0A2BB334603F0AEBAE8680422B8
:1048300000F1A00120463047384600211DF09BB80A
:1048400020461DF0EFBA28464FF4804130470095CE
:104850000CF040BCADF8007000F0FEBF20F0070087
:104860008146406859F8081B704720461DF0C4BDBA
:1048700032F8133013F0500F7047A08ABDF828109B
:10488000BDF82A200144ADF82810E18A0A44ADF8A9
:104890002A20BDF82C201044ADF82C00BDF82E00C5
:1048A00008447047BDF85E00BDF86210081A013078
:1048B00001B2BDF95A0088427047304652465B4605
:1048C00023F03EBDB4F840100089ADF80410BDF8E7
:1048D0000610704700F1280120463847E86820227A
:1048E00000F1D801204630474DF808ED2046FEF78C
:1048F000CAFD20465DF808EBFEF71BBEE8682022E3
:1049000000F1580120463047E868802200F160013C
:1049100020463047E868002200F1D00120463047A9
:10492000E868002200F1B001204630470022F0681C
:1049300000F1180120463847706DF7680121504793
:1049400004464FEAB10003287047706DF5680121F5
:104950005047A6F580670262B842D1F800C08B6864
:10496000046A45687047706DF568032150474FF041
:1049700000094FF0000A4FF0000B704720464FF43B
:10498000007101222847BBF80230BBF800207047B5
:10499000206C40F0010020647047404200260294E1
:1049A000CDE91A0028461C967047024628460E217B
:1049B00016F0F6B8D9E90020072116F0F1B80190F9
:1049C00020440394009038461CF02CB890FBF1F082
:1049D0000022284401B2204670470246304629464C
:1049E00002F070B920461CF0C2BD28464FF4803159
:1049F00070472046032100221FF084B8504611F072
:104A0000C9BB2346691ABDF87050013109B270471D
:104A1000002110F015BC4846414612F002B982EA66
:104A20005121C9B223F05EBA98F8140000F01F00BB
:104A30007047484629463A4606F078BAE8680822A0
:104A400000F1A8012046304738461CF042B8B4F9BE
:104A50002030E08BD4E90512C61870474180C18828
:104A60001144C180704720464FF480710CF08CBB1C
:104A7000CDE90006404601F029BB00F0FC000D998D
:104A80000F9A02300D920F918DF8560070470790E3
:104A900020464FF4A0211CF0A9BF30464FF4E0217E
:104AA000704700F1300120463047F0682A4600F197
:104AB000D8012046384700F1280120462A463847C9
:104AC00090F83C2004460220012A704700F120059E
:104AD00000200FF023BD044690F83D0000287047E9
:104AE0000D4601204FEAB201032984F83C007047CB
:104AF0004FF480710122FDF72ABCBBF80210BBF80D
:104B000000004FF478427047206C20F480702064DD
:104B1000206CC0047047606D40F01000606501209B
:104B200084F851007047002100221EF0F9BDD9E938
:104B30000020042116F034B802230144101A009A10
:104B4000013000B2801A70473A4616F029B8019930
:104B500002206FF0010291FBF0F00FFA88F191FB57
:104B6000F2F10844704700EB8000502101EB400057
:104B7000A02190FBF1F77047C0F3C5016FF007006B
:104B800000EBC100013970472046032100221EF0CE
:104B9000C3BF04EBD030B9F80040ADF85A007047FD
:104BA0006FF30F01194470470598BDF966108068CE
:104BB000A0EB410030F81400ADF8480070474846BB
:104BC00039462A4606F0B2B9F068082200F1A80179
:104BD00020463847ADF8AC00ADF8F40038460EF08A
:104BE00092BCBAF92030BAF81E00DAE90512704713
:104BF000284615F0CEBF20461BF0BBBF9DF85600DF
:104C00001191002D00F0FE018DF8561070470890AC
:104C100020464FF4A0211CF07FBE2046FEF7CCBA00
:104C2000086840F0010008607047002184F83C10DB
:104C3000012184F83D1070474B68CA68194600F09E
:104C4000B7BB4FF480710022FDF781BB143881B2ED
:104C5000142027F0B7BD606D40F0200060657047FC
:104C600084F83E0084F842007047002084F83C003D
:104C70002046FEF797BC384616F066BC484641F61B
:104C8000FF72002305F082BB2046294632461CF005
:104C90002BB9029902206FF0010291FBF0F00FFA9C
:104CA0008BF191FBF2F17047002100224FF0FF33AE
:104CB00000940BF0DDBD2046032100221EF027BF2B
:104CC000014600F0ECBC50462246334610F048BC8A
:104CD000219849462A4603F07BB8F06805F11C028A
:104CE00000F158012046384738461BF0DEBEE80088
:104CF0004FF0011121FA00F0C1B2704720461DF0BB
:104D000091B8BDF92E00696A079ABDF9303041F6B5
:104D1000FF76704758464FF4A0212A461DF02ABA64
:104D2000284615F038BF044690F83C00012870472B
:104D3000242084F83D002068016821F00101016011
:104D40007047B8EEC00A01EB400001EE100A704750
:104D5000016841F04001016070474161C16841F460
:104D60000051C16000202021206484F83D1084F8A7
:104D70003E1010BDD9F8040020211BF0F4B90068E2
:104D80006422407EC0F16401002070470221328B12
:104D900090FBF1F0B18A511A6FF00102484470475C
:104DA0000CB20FF0BBBB2046032100221EF0A5BEB3
:104DB00004EBD030B9F80240ADF858000B985047DA
:104DC0005046224610F0CCBB002600240027CDF828
:104DD00037600D96704770780A21022870474FF4AB
:104DE00000311CF090BF284601210FF07DBB42F23C
:104DF000D17188427047069020464FF4A0211CF0E4
:104E0000C5BC2846FBF79EBCB0FBF3F001306FF346
:104E10001F30002870472046642100F0B5B80220FA
:104E2000211D84F83D00206800F0A4B928460FF049
:104E300085BB40464FF480511DF02DB8009C58466C
:104E40001BF047BE0C4605461EF0F4BE7F21002233
:104E500004461EF014BE05EBD030ADF85C0011988E
:104E600045880C985047BDF96C1050463A46234689
:104E700010F076BBE868002200F178012046304748
:104E80000899284600F00BBC284615F082BE0D9903
:104E90000F9A1FFA88F00AF0D8BFA8EB050001228C
:104EA000084401B220467047002084F83C00704757
:104EB00028460FF08BBB38464FF480711CF0EBBFD7
:104EC000002305461BF076BE0C4605461AF060BF6F
:104ED00004EBD030ADF85C007047BDF9401023986A
:104EE00032B2234610F03CBB706DF7685047304635
:104EF000394601F02BBE002105460FF0F5BABDF88A
:104F00003E00BDF84210081A013070472946FBF7F1
:104F1000F5BB7047806B01684A6822F003024A6063
:104F2000416D41F010014165012180F85110FDF7FC
:104F300015BE806BFDF769BFBCB5FFF755FAFFF7EB
:104F4000A1FB1BD4FFF750F9416821F00201416039
:104F5000FFF761FF08B1FFF77EFEA06820B90020CF
:104F600001902068FFF7F3F90020E086FFF776F95B
:104F700004D02046BDE8BC40FDF7F0BD2046BDE8AA
:104F8000BC40FDF741BF00001CB504463F48134636
:104F90000A4611490068B0FBF1F04FF47A714843BA
:104FA00001906068B0F5827F0AD12046802100F030
:104FB00015F870B1606D40F02000606503201CBDE5
:104FC000019830B10198013801902068806800068E
:104FD000F6D400201CBD00BF00366E012DE9FC4157
:104FE0001E4617460D468046FDF7B6F9301AC4191D
:104FF000FDF7B2F90646254801370068C0F3CB300B
:1050000060430190D8F8000081682940A9420ED180
:10501000002FF9D0FDF7A0F9801BA0420AD2019819
:10502000019901390191002808BF0446EAE70020F0
:10503000BDE8FC81D8E900014268B1F5827F22F029
:10504000E00242600BD1D8F80810B1F5004F02D051
:10505000B1F5806F03D1016821F040010160D8F8FB
:105060002810B1F5005F07D1016821F400510160FB
:10507000016841F400510160002088F850000120CF
:1050800088F851000320BDE8FC8100BF68000020C3
:105090007047FDF72DBA0000B0B592B0002414217E
:1050A000CDE90A44CDE9084401A8FBF74DFC2248AC
:1050B00000940225016841F080510160006800F011
:1050C00080500090009800941C48016841F4804191
:1050D0000160006800F48040009007201095119056
:1050E000A8200F9004200E904FF48000CDE90C50C2
:1050F0004FF48030079001200690009806A8FDF735
:1051000069FB18B1EFF3108072B6FEE74FF48050E0
:10511000CDE90254052105904FF4A05004900F20D2
:10512000019001A8FDF784FA18B1EFF3108072B670
:10513000FEE712B0B0BD00BF403802400070004032
:105140000248016841F470010160704788ED00E099
:105150000148FEF705B900BFD80900200148FEF755
:10516000FFB800BF680A00200148FCF702BE00BF7C
:10517000E006002070B5B34A0368904234D0B0F125
:10518000804F0BD0AB4CA04208D0AB4CA04205D016
:10519000AE4CA04202D0A94CA04203D14C6823F0EF
:1051A00070032343B0F1804F22D0A24CA0421FD005
:1051B000A14CA0421CD0A14CA04219D0A04CA042AE
:1051C00016D0174CA04213D0164CA04210D09F4CC2
:1051D000A0420DD09C4CA0420AD0134CA04207D054
:1051E000124CA04204D007E04C6823F07003234324
:1051F000CC6823F4407323434E6923F080030C688A
:105200008D68334390420360C562846203D002F527
:105210008062904201D1096901630121416170BD41
:10522000001C0040002000400048014000440140B4
:1052300010B501F01F010123046A8B4002FA01F14D
:1052400024EA03030362026A1143016210BD0000F5
:10525000F0B5026A7D4E22F00102A6F58067026277
:10526000D1F800C08B68046A456824F00204234327
:105270008469B84218BFB04210D1CA6823F00C0349
:1052800022F004021343B84218BFB04206D125F4FD
:105290004072D1E905562A4342EA060524F073021A
:1052A000456042EA0C028261496841630362F0BDD5
:1052B000F0B5026A654E22F01002FFF74AFBD0F803
:1052C00018E018BFB04224F0200444EA031313D1BD
:1052D000CA686FF0400423F0C00304EA02121343CB
:1052E000B84218BFB04207D1D1E9052425F4406582
:1052F00045EA820242EA84052EF4E642456042EA2B
:105300000C228261496881630362F0BDF0B5026AD4
:105310004E4E22F48072FFF71CFBD0F81CE018BF41
:10532000B04224F4007444EA032313D1CA6840F263
:10533000FF4423F440631202A2431343B84218BF50
:10534000B04207D1D1E9052425F4405545EA0212BF
:1053500042EA04152EF07302456042EA0C02C26173
:105360004968C1630362F0BDF0B5026A40F480672A
:1053700022F480520262354AD0F820C045680C6899
:105380008B68C669974204D14A6925F4804545EA8D
:10539000821526F4E642456042EA0422C261496869
:1053A00001642CF4005141EA03310162F0BD00BFF9
:1053B00010B5036A046A24F001040462846924F0CD
:1053C000F00444EA0212826123F00A0211430162EE
:1053D00010BD000070B5046AB0F1804F24F00104E4
:1053E00004628569046A14D0124EB04211D0124E84
:1053F000B0420ED0114EB0420BD0114EB04208D088
:10540000104EB04205D0104EB04202D00F4EB04206
:105410000CD125F003052A4363F3071201F00A01BA
:10542000826124F00A021144016270BD45F001025C
:10543000F2E700BF0004004000080040000C0040FC
:1054400000180040000001400040014000040140FD
:10545000036A23F010030362836923F4704343EA71
:105460000232036A826123F0A00242EA0111016262
:10547000704710B5046A120201F00A0124F010040A
:1054800004624FF2FF04A24363F30F32836923F4F3
:1054900073431A43036A826123F0A00242EA0111B6
:1054A000016210BDB0B50446006804F108030ECBDC
:1054B000056925F4405519432A4349F20C650261F8
:1054C000C26863691943E369AA4319431143C16080
:1054D0004169A26921F44071114341611B4940F4C3
:1054E0008060884202D1FDF737F901E0FDF72AF923
:1054F000E26919216368A0FB0101B2F5004F10D1E8
:105500005A00DB0FFAF7C7FEFEF7DFFE03EBC00021
:10551000B0FBF1F04FF4F87101EA400100F0070030
:105520000DE09A009B0FFAF7B6FEFEF7CEFE03EBF6
:105530000010B0FBF1F000F0F00100F00F0001EB03
:105540000211084421688860B0BD00BF001401400A
:10555000FEE7026800211378303B092B84BF084620
:105560007047531C01EB81010360127802EB41018B
:105570001A463039EFE70000B0B50848442101F081
:10558000EDFA074821210022002422F025F8054DDC
:10559000686002F019FB2C70B0BD00BFAC020020A7
:1055A000ED7B0008500200202DE9F84381460E46AD
:1055B00008461146154600F0E5F8F0B13046294698
:1055C0000022002700F096F8002865D170886B88CB
:1055D000F188B6F800C0B6F804E01F1A091A3FB205
:1055E000012F0CDBA9F80630A9F804E0A9F80200A5
:1055F000A9F800C00127708802E0FF274CE00027CF
:10560000B5F90630CA1A024412B2012A12DBB6F901
:10561000062093420EDA3288B6F80480084429F84E
:10562000372009EBC7020137D080A2F804805380ED
:10563000EB887088B5F9022001B2AEEB0C0C8A42FF
:10564000C8BF1046B6F9062019B29142B8BF1A4633
:1056500033882988CC1A24B2012C0CDB141A24B20A
:10566000012C08DB29F8373009EBC7030137DA8052
:10567000998058803388A988ACEB01041C4424B27B
:10568000012C09DB29F8371009EBC7010137CA8063
:1056900003EB0C0248808A8078B2BDE8F883F0B54D
:1056A000B1F90030B2F90070B1F90240B1F904501B
:1056B000B1F906C0B2F90210B2F90460B2F90620DD
:1056C000BB42C8BF1F4607808C42C8BF21464180ED
:1056D000B542B8BF2E4686809445B8BF6246C280A8
:1056E000B74205DC10B209B28142DCBF0120F0BD37
:1056F0000020F0BD2DE9F8430D46B0F90070B1F976
:1057000000108F4238DBB0F90260B5F902108E420A
:1057100032DBB0F90490B5F9041089452CDCB0F9FE
:105720000680B5F90600804526DC14463AB3694682
:1057300028462246ADF80260FFF78CF8E0B16946D2
:1057400028462246ADF80260ADF8009000F084F8DB
:1057500090B1694628462246ADF80280FFF77AF8F4
:1057600050B1694628462246ADF80280ADF8009057
:1057700000F072F8BDE8F8830020BDE8F88301204E
:10578000BDE8F883B1F90420B0F90030934213DC8E
:10579000B1F90020B0F9043093420DDBB1F90620D5
:1057A000B0F90230934207DCB1F90210B0F90600FB
:1057B0008842A4BF01207047002070472DE9F843BC
:1057C0000D46B0F90460B1F900108E4211DBB0F95A
:1057D0000670B5F902108F420BDBB0F90080B5F905
:1057E0000410884505DCB0F90290B5F90600814542
:1057F00002DD0120BDE8F8831446EAB16946284677
:105800002246ADF80290ADF8008000F025F898B976
:10581000694628462246ADF80290ADF8006000F0D7
:105820001BF848B9694628462246ADF80270ADF823
:10583000008000F011F810B10020BDE8F88369463F
:1058400028462246ADF80270ADF8006000F004F87A
:1058500080F00100BDE8F8832DE9FC470C46B0F963
:105860000010B4F900308B420DDBB0F90470BB427C
:1058700009DCB0F90260B4F90230B34203DBB0F9DD
:105880000650AB4202DD0020BDE8FC87012A69DB3F
:10589000A81B7B1A4FF0020CADF80260ADF80010A7
:1058A000013001331BB200B290FBFCF993FBFCF317
:1058B0000FFA89FE18B27045B8BF99460FFA89F001
:1058C0009042A8BF914609EB010A09EB0608684619
:1058D00021460022ADF804A0ADF80680FFF7BCFF1A
:1058E00020B108EB0900ADF806000FE0ADF8065056
:1058F000A5EB0905684621460022ADF80250FFF7E6
:10590000ABFF40B1A5EB0900ADF802000AEB0900BE
:10591000ADF8040020E0ADF80470A7EB0907684675
:1059200021460022FEF796FF20B1A5EB0900ADF855
:1059300002000DE0684621460022ADF80680ADF871
:105940000260FFF789FF68B108EB0900ADF80600B7
:10595000A7EB0900ADF80000684621461EF040FAAA
:10596000BDE8FC870120BDE8FC87F0B5B1F9003047
:10597000B2F90060B1F90240B2F90270B1F9045015
:10598000B1F906C0B2F90410B2F90620B342B8BFAB
:105990001E460680BC42B8BF274647808D42C8BF1E
:1059A000294681809445C8BF6246C280F0BD000090
:1059B0002DE9F04F91B0044621F0C2FD002108917D
:1059C00003900CB1E06801E00EF0A4FDDFF858860A
:1059D000C8F8080000691EF02DF9D8F808104869C9
:1059E00018B11EF027F9D8F80810C8691EF022F97E
:1059F000D8F80800006A1EF01DF9D8F808000169FF
:105A0000002900F0BD80DFF85CA6002609AC4FF04D
:105A10000109B0F850118E4246D2811991F8301127
:105A200009B10136F5E70027B0F850118F42F8D2DE
:105A3000C11991F8301199BBB74231D000F1300152
:105A400001EBC60001EBC701FFF79CFE40B3D8F89D
:105A50000800303000EBC60100EBC7022046FFF71C
:105A600084FF2046D0470446D8F8080000EBC60063
:105A70003030D0470546D8F8080000EBC70030307A
:105A8000D0472844844209AC0AD2D8F80800DDE99E
:105A9000092300EBC60138440A634B6380F8309158
:105AA000D8F808000137BFE701680A7CD20700F088
:105AB0009080C9684968002900F08B8000F5AC70BF
:105AC00001F097F8002840F08480D8F808000168B9
:105AD000C9688A680B6807929A4208BF4B680693A8
